{
  "_format": "hh3-artifact-1",
  "contractName": "SecretNFTClub",
  "sourceName": "contracts/SecretNFTClub.sol",
  "abi": [
    {
      "inputs": [
        {
          "internalType": "bytes32",
          "name": "_secretHash",
          "type": "bytes32"
        },
        {
          "internalType": "address",
          "name": "_verifier",
          "type": "address"
        }
      ],
      "stateMutability": "nonpayable",
      "type": "constructor"
    },
    {
      "inputs": [],
      "name": "AlreadyMember",
      "type": "error"
    },
    {
      "inputs": [],
      "name": "InvalidProof",
      "type": "error"
    },
    {
      "anonymous": false,
      "inputs": [
        {
          "indexed": true,
          "internalType": "address",
          "name": "member",
          "type": "address"
        },
        {
          "indexed": true,
          "internalType": "uint256",
          "name": "tokenId",
          "type": "uint256"
        }
      ],
      "name": "MemberJoined",
      "type": "event"
    },
    {
      "inputs": [
        {
          "internalType": "address",
          "name": "",
          "type": "address"
        }
      ],
      "name": "hasJoined",
      "outputs": [
        {
          "internalType": "bool",
          "name": "",
          "type": "bool"
        }
      ],
      "stateMutability": "view",
      "type": "function"
    },
    {
      "inputs": [
        {
          "internalType": "address",
          "name": "account",
          "type": "address"
        }
      ],
      "name": "isMember",
      "outputs": [
        {
          "internalType": "bool",
          "name": "",
          "type": "bool"
        }
      ],
      "stateMutability": "view",
      "type": "function"
    },
    {
      "inputs": [
        {
          "internalType": "bytes",
          "name": "proof",
          "type": "bytes"
        }
      ],
      "name": "join",
      "outputs": [],
      "stateMutability": "nonpayable",
      "type": "function"
    },
    {
      "inputs": [
        {
          "internalType": "address",
          "name": "",
          "type": "address"
        }
      ],
      "name": "memberTokenId",
      "outputs": [
        {
          "internalType": "uint256",
          "name": "",
          "type": "uint256"
        }
      ],
      "stateMutability": "view",
      "type": "function"
    },
    {
      "inputs": [],
      "name": "secretHash",
      "outputs": [
        {
          "internalType": "bytes32",
          "name": "",
          "type": "bytes32"
        }
      ],
      "stateMutability": "view",
      "type": "function"
    },
    {
      "inputs": [],
      "name": "totalMembers",
      "outputs": [
        {
          "internalType": "uint256",
          "name": "",
          "type": "uint256"
        }
      ],
      "stateMutability": "view",
      "type": "function"
    },
    {
      "inputs": [],
      "name": "verifier",
      "outputs": [
        {
          "internalType": "contract IVerifier",
          "name": "",
          "type": "address"
        }
      ],
      "stateMutability": "view",
      "type": "function"
    }
  ],
  "bytecode": "0x60c060405234801561000f575f5ffd5b5060405161057e38038061057e83398101604081905261002e91610045565b60a0919091526001600160a01b031660805261007f565b5f5f60408385031215610056575f5ffd5b825160208401519092506001600160a01b0381168114610074575f5ffd5b809150509250929050565b60805160a0516104d16100ad5f395f818161014b01526101df01525f81816083015261023201526104d15ff3fe608060405234801561000f575f5ffd5b506004361061007a575f3560e01c8063877f4e1211610058578063877f4e12146100e9578063a230c5241461011b578063d29e680314610146578063da104da21461016d575f5ffd5b80632b7ac3f31461007e5780636170b162146100c257806376e92559146100d7575b5f5ffd5b6100a57f000000000000000000000000000000000000000000000000000000000000000081565b6040516001600160a01b0390911681526020015b60405180910390f35b6100d56100d0366004610331565b61018c565b005b6002545b6040519081526020016100b9565b61010b6100f736600461039f565b5f6020819052908152604090205460ff1681565b60405190151581526020016100b9565b61010b61012936600461039f565b6001600160a01b03165f9081526020819052604090205460ff1690565b6100db7f000000000000000000000000000000000000000000000000000000000000000081565b6100db61017b36600461039f565b60016020525f908152604090205481565b335f9081526020819052604090205460ff16156101bc576040516340803a5f60e11b815260040160405180910390fd5b6040805160018082528183019092525f91602080830190803683370190505090507f0000000000000000000000000000000000000000000000000000000000000000815f81518110610210576102106103cc565b6020908102919091010152604051633a94343960e21b81526001600160a01b037f0000000000000000000000000000000000000000000000000000000000000000169063ea50d0e49061026b908690869086906004016103e0565b602060405180830381865afa158015610286573d5f5f3e3d5ffd5b505050506040513d601f19601f820116820180604052508101906102aa9190610458565b6102c7576040516309bde33960e01b815260040160405180910390fd5b600280545f91826102d783610477565b90915550335f81815260208181526040808320805460ff191660019081179091559091528082208490555192935083927f7f3b9effe05cfb4f31f854004de03199fd03fe56bf38a48b2aa9a9f4402d6e239190a350505050565b5f5f60208385031215610342575f5ffd5b823567ffffffffffffffff811115610358575f5ffd5b8301601f81018513610368575f5ffd5b803567ffffffffffffffff81111561037e575f5ffd5b85602082840101111561038f575f5ffd5b6020919091019590945092505050565b5f602082840312156103af575f5ffd5b81356001600160a01b03811681146103c5575f5ffd5b9392505050565b634e487b7160e01b5f52603260045260245ffd5b60408152826040820152828460608301375f606084830101525f601f19601f85011682016060810160608483030160208501528085518083526080840191506020870193505f92505b8083101561044c5783518252602082019150602084019350600183019250610429565b50979650505050505050565b5f60208284031215610468575f5ffd5b815180151581146103c5575f5ffd5b5f6001820161049457634e487b7160e01b5f52601160045260245ffd5b506001019056fea26469706673582212205262cdeacc919f5edbafead012986740c64752084f46d6e7177f0d4077ed751c64736f6c634300081c0033",
  "linkReferences": {},
  "deployedLinkReferences": {},
  "immutableReferences": {
    "15": [
      {
        "length": 32,
        "start": 131
      },
      {
        "length": 32,
        "start": 562
      }
    ],
    "17": [
      {
        "length": 32,
        "start": 331
      },
      {
        "length": 32,
        "start": 479
      }
    ]
  },
  "inputSourceName": "project/contracts/SecretNFTClub.sol",
  "buildInfoId": "solc-0_8_28-cf5aaad58dc8a0c01aee47871be83358ce3ad546"
}